:100000000C9434000C9449000C9449000C94490061
:100010000C9449000C9449000C9449000C9449003C
:100020000C9449000C9449000C9449000C9449002C
:100030000C9449000C9449000C9449000C9449001C
:100040000C9449000C9449000C9449000C9449000C
:100050000C9449000C9449000C9449000C944900FC
:100060000C9449000C94490011241FBECFEFD8E036
:10007000DEBFCDBF11E0A0E0B1E0E4EAF3E002C0F2
:1000800005900D92A830B107D9F70E94B1010C94E8
:10009000D0010C94000084B18F6084B987B18F6067
:1000A00087B9449A3C9A0895CF93DF93CDB7DEB7D2
:1000B00060970FB6F894DEBF0FBECDBFFE0131963C
:1000C00020E1DF011D922A95E9F753B146B1DF0126
:1000D0001816190644F49C01217033272D933D9383
:1000E00095958795F5CF26B1207F8B819C81880FD0
:1000F000991F282B8981282B8D819E81880F991F1C
:10010000880F991F282B8F819885A3E0880F991F4E
:10011000AA95E1F7282B28B91616170644F4CB0147
:10012000817099278193919375956795F5CF23B148
:10013000207F8B819C81880F991F282B8981282BF8
:100140008D819E81880F991F880F991F282B8F8181
:10015000988573E0880F991F7A95E1F7282B25B9C8
:10016000449889EF90E00197F1F700C00000449AAD
:1001700055B948B960960FB6F894DEBF0FBECDBF33
:10018000DF91CF9108955A9A00C05A980895CF935D
:10019000DF931F92CDB7DEB7662311F0589A01C0E6
:1001A00058985998539A549A559A569A5E985D98C9
:1001B0005C985B9887FD5E9A86FD5D9A85FD5C9AEA
:1001C00084FD5B9A89830E94C3005E985D985C9869
:1001D0005B98898183FD5E9A82FD5D9A81FD5C9AC0
:1001E00080FD5B9A0E94C3005B9A5C9A5D9A5E9A5E
:1001F0000F90DF91CF9108955898599A5398549839
:10020000559856985A9A00C04B9902C080E001C098
:1002100080E14C9980624D9980644E9980685A982B
:1002200000C05A9A00C04B9981604C9982604D99E8
:1002300084604E9988605A9808950E94FC0087FD5A
:10024000FCCF88E090E00197F1F70C94FC00CF938D
:10025000C82F0E941D0160E08C2FCF910C94C70025
:10026000CF93C82F0E941D0161E08C2FCF910C9479
:10027000C700611102C0805801C080540C9427014E
:100280000E941D0190E0089581E00C94270182E016
:100290000C942701CF93C82F0E941D01CA3049F446
:1002A000803410F480E401C080E08058CF910C9439
:1002B000270161E08C2FCF910C94C700CF93DF937F
:1002C000EC018991882319F00E944A01FACFDF914D
:1002D000CF910895CF93DF93FC018491EF01219694
:1002E000882321F00E944A01FE01F7CFDF91CF91D0
:1002F0000895CF93C82F509A519A529A539A549A6C
:10030000559A569AE0E0FAEF3197F1F75C9A5B9ACA
:100310000E94C300E0E0FEE43197F1F70E94C300C1
:10032000E0E0F1E03197F1F70E94C300E0E0F1E096
:100330003197F1F75B980E94C300E0E0F1E031975C
:10034000F1F788E20E94270188E00E9427010E94BD
:10035000440186E00E9427018C2FCF910C94270145
:1003600008958CE00E9479010E94440180E091E0B0
:100370000E945E010E944B0063E070E081E090E02B
:100380000E945400579A8BB180588BB92FEF83EDA0
:1003900090E3215080409040E1F700C00000F3CF8F
:0403A000F894FFCFFF
:0803A4004C544331353634009E
:00000001FF
