:100000000C9434000C9446000C9446000C9446006A
:100010000C9446000C9446000C9446000C94460048
:100020000C9446000C9446000C9446000C94460038
:100030000C9446000C9446000C9446000C94460028
:100040000C9446000C9446000C9446000C94460018
:100050000C9446000C947C000C9446000C944600D2
:100060000C9446000C94460011241FBECFEFD8E03C
:10007000DEBFCDBF25E0A0E0B1E001C01D92A03001
:10008000B207E1F70E943D010C946B010C94000053
:1000900020917A00206120937A00A99A1092FF049F
:1000A0001092FE04789420917A00286220937A00BE
:1000B0002091FE043091FF0426173707CCF32091DE
:1000C000780030917900207F309379002093780078
:1000D000F894FC0120E030E02617370764F4D901DA
:1000E000AA0FBB1FA050BF4F4D915C9141935193FC
:1000F0002F5F3F4FF1CF08951F920F920FB60F92CF
:1001000011248F939F93EF93FF93E091FE04F0915E
:10011000FF048091790090E0EE0FFF1FE050FF4F49
:10012000918380838091FE049091FF0401969093C7
:10013000FF048093FE04A99AFF91EF919F918F9104
:100140000F900FBE0F901F90189580E680937C0053
:10015000EBE7F0E080818360808384E880937A001D
:10016000089584B5826084BD85B5826085BD8EE1C9
:1001700087BD08950E94A5000C94B1008091C00035
:10018000807808958091C000807208958DED9FEF72
:10019000000001970097E1F708958091C00087FF64
:1001A000FCCF8091C60008959091C00095FFFCCFD0
:1001B0008093C60008958091C00087FD12C081E43D
:1001C0000E94D4000E94C6000E94C6000E94C60081
:1001D0000E94C6000E94C6000E94C6000E94C6007F
:1001E000EACF0895CF93DF93EC018991882319F02A
:1001F0000E94D400FACFDF91CF910895519A219AAD
:100200001092C50087E68093C40088E18093C10006
:1002100086E08093C200289A0E94DB0085B181703D
:1002200085B90895CF93C82F87E50E94D4008C2FFD
:100230000E94D4000E94CD008735E1F7CF91089548
:10024000EF92FF920F931F93CF93DF937B018C016B
:10025000C0E0D0E0CE15DF0541F0F80180810E5FEF
:100260001F4F0E94D4002196F5CFDF91CF911F91AF
:100270000F91FF90EF9008950895CF93DF93CDB73E
:10028000DEB7D4500FB6F894DEBF0FBECDBF0E94CC
:10029000BA000E94FE008E010F5F1F4F80E094E0C5
:1002A000F8019C01119221503040E1F78FEF90E06E
:1002B0000E94120100B605FEFDCF299A6FEF70E093
:1002C000C8010E94480025B12C7F25B96FEF70E06E
:0A02D0000E942001EBCFF894FFCF4D
:00000001FF
